:100000000C9442000C9493010C9493010C94930172
:100010000C9493010C9493010C9493010C94930110
:100020000C9493010C9493010C9493010C94930100
:100030000C9493010C9493010C946C000C94930118
:100040000C9493010C9493010C9493010C949301E0
:100050000C9493010C9493010C9493010C949301D0
:100060000C9493010C9493010C9493010C949301C0
:100070000C9493010C9493013800380E80380E389C
:100080000F00033611241FBECFEFCDBFDFE3DEBF6D
:10009000E8E7F0E040E017C0B591A59135912591D2
:1000A000059107FD0CC095918591EF01F92FE82F7F
:1000B00005900D92A217B307D9F7FE0104C01D9257
:1000C000A217B307E1F7E438F40731F70E94CD0037
:0800D0000C946301F894FFCFCA
:1000D8001F920F920FB60F9211242F933F934F93B5
:1000E8005F936F937F938F939F93AF93BF93EF9398
:1000F800FF93CF93DF930F92CDB7DEB78091AB0814
:1001080087FF1AC08091AB0881FD0AC08091AD08B5
:10011800E0910438F09105383097B1F0099514C092
:10012800E0910238F0910338309711F0099501C039
:1001380080E08093AD0808C08091AB0886FF11C0AD
:100148008091AB0880FF02C083E008C0E0910038CE
:10015800F0910138309709F0099586E08093AA0854
:1001680004C08091AB08898300000F90DF91CF9184
:10017800FF91EF91BF91AF919F918F917F916F9177
:100188005F914F913F912F910F900FBE0F901F904D
:020198001895B8
:10019A00CF93DF93CDB7DEB76097CDBFDEBF0E94A6
:1001AA0097010E946E0180E40E943B0180E090E08A
:1001BA00E1E0F0E0EC0FFD1FE80FF91F1082019655
:1001CA0080319105A9F760E1CE0101960E9476017E
:1001DA0068E0CE0109960E947D018FE191E00E94BC
:1001EA00840180E091E00E94890180E591E00E940B
:0601FA008E017894FFCF96
:1002000081E080930D3890910C3880910A389817CE
:1002100078F480910C38E0910638F0910738E80FB7
:10022000F11D808190910C389F5F90930C38089558
:0E02300080910A388F5F80930C3880E008952B
:10023E0090910E38911113C020910C3890910B387B
:10024E00291788F490910C38E0910838F09109380C
:10025E00E90FF11D808380910C388F5F02C01092E0
:08026E000E3880930C3808954E
:100276001092043810920538109202381092033802
:100286001092003810920138E0EAF8E091E092838B
:0A029600880F848781EE81870895A8
:1002A00080910D38882349F080910C38882329F0FB
:1002B00080910C38815080930C3881E080930E3807
:0602C00010920D380895B4
:1002C600EC010E9499010E949801CE010E949A01B8
:0602D600CE010E9495011B
:1002DC00E0E2F4E083E0818388E0818B808B0895F9
:0E02EC00809306389093073860930A3808957F
:0E02FA00809308389093093860930B3808956C
:0A030800809304389093053808959F
:0A0312008093023890930338089599
:0A031C008093003890930138089593
:040326000C94000033
:04032A000E946A00C3
:02032E00089530
:0203300008952E
:0203320008952C
:0203340008952A
:0103360001C5
:02000004008278
:0900000000007D0000F6FF000085
:02000004008377
:01000000C53A
:00000001FF
