:100000000C9445000C9475020C9475020C947502C6
:100010000C9475020C9475020C9475020C94750284
:100020000C9475020C9475020C9475020C94750274
:100030000C9475020C9475020C946F000C9475026C
:100040000C9475020C9475020C9475020C94750254
:100050000C9475020C9475020C9475020C94750244
:100060000C9475020C9475020C9475020C94750234
:100070000C9475020C9475023800380A80380A38DE
:100080000B0004F8380B380F800011241FBECFEF8F
:10009000CDBFDFE3DEBFE8E7F0E040E017C0B59199
:1000A000A59135912591059107FD0CC095918591FC
:1000B000EF01F92FE82F05900D92A217B307D9F79A
:1000C000FE0104C01D92A217B307E1F7E938F40757
:0E00D00031F70E940B010C946202F894FFCFEE
:1000DE001F920F920FB60F9211242F933F934F93AF
:1000EE005F936F937F938F939F93AF93BF93EF9392
:1000FE00FF93CF93DF9300D0CDB7DEB780EA98E0C1
:10010E00FC0183858823C4F5198280EA98E0FC01FE
:10011E008385882F90E08270992795958795892BF6
:10012E0099F480EA98E0FC018585898380910038F6
:10013E0090910138892BD1F02091003830910138FF
:10014E008981F901099512C0809102389091033886
:10015E00892B39F08091023890910338FC01099572
:10016E00898380EA98E02981FC01258780EA98E05E
:10017E0023E0FC01228732C080EA98E0FC018385EF
:10018E00882F90E080749927892B11F180EA98E0EE
:10019E00FC018385882F90E081709927892B31F09F
:1001AE0080EA98E023E0FC01228718C08091043891
:1001BE0090910538892B31F0809104389091053853
:1001CE00FC01099580EA98E026E0FC01228706C032
:1001DE0080EA98E0FC0183858A83000000000F907E
:1001EE000F90DF91CF91FF91EF91BF91AF919F91C2
:1001FE008F917F916F915F914F913F912F910F90C2
:08020E000FBE0F901F90189520
:10021600CF93DF93CDB7DEB76197CDBFDEBF0E9428
:100226006D020E94120280E40E949F0119820DC095
:100236008981882F90E09E012E5F3F4F820F931F8A
:10024600FC01108289818F5F89838981803180F3E7
:10025600CE01029660E10E94E001CE010296089668
:1002660068E00E94F90184E491E00E94290283E794
:1002760091E00E943C0286EC91E00E944F02789445
:02028600FFCFA8
:10028800CF93DF930F92CDB7DEB7898390910A3869
:1002980081E089278823C9F090910C3880910D3826
:1002A8009817C0F4209106383091073880910C389F
:1002B800882F90E0820F931F2981FC012083809171
:1002C8000C388F5F80930C3805C010920A388981EA
:0E02D80080930C3800000F90DF91CF910895B5
:1002E600CF93DF930F92CDB7DEB781E080930B38C3
:1002F600198290910C3880910E38981798F42091B5
:1003060008383091093880910C38882F90E0820F98
:10031600931FFC018081898380910C388F5F8093C5
:100326000C3805C080910E388F5F80930C38898118
:080336000F90DF91CF910895B3
:10033E00CF93DF930F92CDB7DEB78983109200383B
:10034E00109201381092023810920338109204382D
:10035E001092053880EA98E021E0FC01228380EAC1
:10036E0098E02981220FFC01248780EA98E021EE93
:0E037E00FC01218700000F90DF91CF910895C0
:10038C00CF93DF93CDB7DEB780910B38882349F03C
:10039C0080910C38882329F080910C3881508093FF
:1003AC000C3881E080930A3810920B380000DF91F2
:0403BC00CF91089540
:1003C000CF93DF9300D00F92CDB7DEB789839A83A6
:1003D0006B8389819A8180930838909309388B8147
:1003E00080930E3800002396CDBFDEBFDF91CF9102
:0203F00008956E
:1003F200CF93DF9300D00F92CDB7DEB789839A8374
:100402006B8389819A8180930638909307388B8118
:1004120080930D3800002396CDBFDEBFDF91CF91D0
:0204220008953B
:10042400CF93DF93CDB7DEB780E294E023E0FC0105
:10043400218380E294E028E0FC01218B80E294E0B7
:0E04440028E0FC01208B0000DF91CF9108958D
:10045200CF93DF9300D0CDB7DEB789839A838981AA
:100462009A81809300389093013800000F900F908A
:06047200DF91CF91089517
:10047800CF93DF9300D0CDB7DEB789839A83898184
:100488009A81809302389093033800000F900F9060
:06049800DF91CF910895F1
:10049E00CF93DF9300D0CDB7DEB789839A8389815E
:1004AE009A81809304389093053800000F900F9036
:0604BE00DF91CF910895CB
:1004C400EC010E947A020E947902CE010E947B0212
:0604D400CE010E94770238
:1004DA00CF93DF93CDB7DEB70000DF91CF910895B8
:0404EA000C9400006E
:0404EE000E946D00FB
:0204F20008956B
:0204F400089569
:0204F600089567
:0104F8000102
:02000004008278
:0900000000007D0000F6FF000085
:02000004008377
:01000000C53A
:00000001FF
