:100000000C943F000C942B020C942B020C942B02AA
:100010000C94C2000C942B020C942B020C942B0217
:100020000C942B020C942B020C942B020C942B029C
:100030000C942B020C942B020C942B020C942B028C
:100040000C942B020C942B020C942B020C942B027C
:100050000C942B020C942B020C942B020C942B026C
:100060000C942B020C942B020C942B020C942B025C
:100070000C942B020C942B023800380680001124BB
:100080001FBECFEFCDBFDFE3DEBFE8E7F0E040E02B
:1000900017C0B591A59135912591059107FD0CC02B
:1000A00095918591EF01F92FE82F05900D92A217F8
:1000B000B307D9F7FE0104C01D92A217B307E1F7F9
:1000C000ED37F40731F70E9498010C94ED01F89494
:0200D000FFCF60
:1000D200EF92FF920F931F93CF93DF930F92CDB7BF
:1000E200DEB769837A01022F60E00E941501811157
:1000F20006C00E9413020E941E02E9F72EC061E0B0
:10010200CE0101960E946101182F811106C00E9442
:1001120013020E941E02E9F720C08091A7088160A5
:100122008093A7088091A40881608093A40880919D
:10013200A50885FD0BC08091A50882FD07C08091AE
:10014200A50883FD03C00E94190289F70E94AD0130
:10015200882329F083E08093A40810E009C0602F6F
:10016200C7010E943B010E9413020E941E02E9F78E
:10017200812F0F90DF91CF911F910F91FF90EF9000
:020182000895DE
:100184001F920F920FB60F9211242F933F934F9308
:100194005F936F937F938F939F93AF93BF93EF93EB
:1001A400FF9381E080935301E0910038F09101388E
:1001B400309709F00995FF91EF91BF91AF919F910D
:1001C4008F917F916F915F914F913F912F910F90FC
:0801D4000FBE0F901F9018955B
:1001DC001F93CF93DF93EB01142F60E00E94150166
:1001EC0081110BC09091A40893609093A4089091F6
:1001FC00A50893709130D9F70EC0612FCE010E94E3
:10020C0061019091A40893609093A4089091A50823
:0E021C0093709130D9F7DF91CF911F91089523
:10022A009091A5089370933011F480E00895880F97
:10023A00682B6093A7088091A50885FD0BC0809163
:10024A00A50882FD07C08091A50883FD03C00E940E
:10025A00190289F70E94AD01882331F00E94130226
:0C026A000E941E02E9F7E1CF81E0089538
:1002760020E22093A508FC0190E082E09617D1F0D9
:100286002091A50825FD0DC02091A50822FD09C0D5
:100296002091A50823FD05C02091A50823702330D1
:1002A60079F72091A80821939F5F691739F3809306
:0C02B600A408E4CF87E08093A40808951A
:1002C200282FFC018E2F821B8617C0F48191809308
:1002D200A8088091A50885FD0BC08091A50882FD24
:1002E20007C08091A50883FD03C00E94190289F707
:1002F2008091A50884FFE6CF80E0089581E008950B
:100302001092003810920138E0E4F1E080E8808336
:1003120081E08583878328E237E222873387858BD2
:0E032200828B89E3808B8081816080830895C7
:100330000E942F020E9423020E9481010E94270234
:1003400078948FEF0E94D6018AEA0E94E201889594
:0A0350006FEF84E00E94C901FACFAC
:10035A008091A5088C7141F49091A508937081E071
:0C036A00933019F080E0089581E00895C0
:100376000E940B02E0EAF8E084E0808381E0828359
:0C0386009DEF958398E096838383089593
:10039200CF93DF93D82FC62F0E94F801682F6C27C6
:0A03A2008D2FDF91CF910C94020221
:1003AC00CF93C82F83E00E94F801C0956C2F68236F
:0803BC0083E0CF910C940202D2
:1003C400CF93C82F84E00E94F801682F6C2B84E03F
:0603D400CF910C9402021F
:1003DA00EC010E9431020E943002CE010E943202D8
:0603EA00CE010E942D026D
:1003F00021E042E058E3682F80E60E946900809186
:040400000238089521
:10040400E2E0F8E38083618342E0BF0180E60C947C
:02041400EE00F8
:10041600E0E2F4E083E0818388E0818B808B0895BD
:0C0426008091A40883608093A4080895CE
:0A0432008091A508837083300895BF
:0A043C008091A508837081300895B7
:0804460083E08093500008954B
:08044E000E94BB010C940B029B
:040456000C94000002
:04045A000E94670095
:02045E000895FF
:020460000895FD
:020462000895FB
:020464000895F9
:02000004008278
:0900000000007D0000F6FF000085
:02000004008377
:01000000C53A
:00000001FF
