:100000000C943F000C94FD010C94FD010C94FD0137
:100010000C94B4000C94FD010C94FD010C94FD01B2
:100020000C94FD010C94FD010C94FD010C94FD0158
:100030000C94FD010C94FD010C94FD010C94FD0148
:100040000C94FD010C94FD010C94FD010C94FD0138
:100050000C94FD010C94FD010C94FD010C94FD0128
:100060000C94FD010C94FD010C94FD010C94FD0118
:100070000C94FD010C94FD01380038068000112419
:100080001FBECFEFCDBFDFE3DEBFE8E7F0E040E02B
:1000900017C0B591A59135912591059107FD0CC02B
:1000A00095918591EF01F92FE82F05900D92A217F8
:1000B000B307D9F7FE0104C01D92A217B307E1F7F9
:1000C000ED37F40731F70E9475010C94CA01F894DA
:0200D000FFCF60
:1000D200EF92FF920F931F93CF93DF930F92CDB7BF
:1000E200DEB769837A01022F60E00E940601182FB1
:1000F200882381F161E0CE0101960E942901182F27
:10010200811104C083E08093A40824C08091A708D1
:1001120081608093A70881E08093A4088091A5085C
:1001220085FD0BC08091A50882FD07C08091A508BE
:1001320083FD03C00E94F00189F70E948A0188238F
:1001420029F083E08093A40810E004C0602FC70167
:100152000E94E000812F0F90DF91CF911F910F91AC
:06016200FF90EF900895EC
:100168001F920F920FB60F9211242F933F934F9324
:100178005F936F937F938F939F93AF93BF93EF9307
:10018800FF9381E080935301E0910038F0910138AA
:10019800309709F00995FF91EF91BF91AF919F9129
:1001A8008F917F916F915F914F913F912F910F9018
:0801B8000FBE0F901F90189577
:1001C00020E22093A508FC0190E082E09617D1F090
:1001D0002091A50825FD0DC02091A50822FD09C08C
:1001E0002091A50823FD05C02091A5082370233088
:1001F00079F72091A80821939F5F691739F38093BD
:0C020000A408E4CF87E08093A4080895D0
:10020C009091A50893709330D1F0880F682B609370
:10021C00A7088091A50885FD0BC08091A50882FDDB
:10022C0007C08091A50883FD03C00E94F00189F7E7
:10023C000E948A01882329F083E08093A40880E03F
:06024C00089581E0089511
:10025200282FFC018E2F821B8617C0F48191809378
:10026200A8088091A50885FD0BC08091A50882FD94
:1002720007C08091A50883FD03C00E94F00189F7A1
:100282008091A50884FFE6CF80E0089581E008957B
:100292001092003810920138E0E4F1E080E88083A7
:1002A20081E08583878328E237E222873387858B43
:0E02B200828B89E3808B808181608083089538
:1002C0001F93CF93DF93EB01142F60E00E94060190
:1002D000882339F0612FCE010E94290193E0909389
:0A02E000A408DF91CF911F9108954B
:1002EA000E9401020E94F5010E9449010E94F9013F
:1002FA0078948FEF0E94B3018AEA0E94BF01889521
:0A030A006FEF84E00E94A601FACF15
:100314008091A5088C7141F49091A508937081E0B7
:0C032400933019F080E0089581E0089506
:100330000E94E801E0EAF8E084E0808381E08283C3
:0C0340009DEF95839FE0968383830895D2
:10034C00CF93DF93D82FC62F0E94D501682F6C272F
:0A035C008D2FDF91CF910C94DF018B
:10036600CF93C82F83E00E94D501C0956C2F6823D8
:0803760083E0CF910C94DF013C
:10037E00CF93C82F84E00E94D501682F6C2B84E0A8
:06038E00CF910C94DF0189
:10039400EC010E9403020E940202CE010E940402A8
:0603A400CE010E94FF01E2
:1003AA0021E042E058E3682F80E60E9469008091CC
:0403BA000238089568
:1003BE00E2E0F8E38083618342E0BF0180E60C94C3
:0203CE006001CC
:1003D000E0E2F4E086E0818388E0818B828B0895FF
:0A03E0008091A50883708330089512
:0803EA0083E0809350000895A8
:0803F2000E9498010C94E8013F
:0403FA000C9400005F
:0403FE000E946700F2
:0204020008955B
:02040400089559
:02040600089557
:02040800089555
:02000004008278
:0900000000007D0000F6FF000085
:02000004008377
:01000000C53A
:00000001FF
