:100000000C943F000C9416040C9416040C941604E3
:100010000C94C6020C9416040C9416040C9416044A
:100020000C9416040C9416040C9416040C941604E8
:100030000C9416040C9416040C9416040C941604D8
:100040000C9416040C9416040C9416040C941604C8
:100050000C9416040C9416040C9416040C941604B8
:100060000C9416040C9416040C9416040C941604A8
:100070000C9416040C9416043800380680001124E1
:100080001FBECFEFCDBFDFE3DEBFE8E7F0E040E02B
:1000900017C0B591A59135912591059107FD0CC02B
:1000A00095918591EF01F92FE82F05900D92A217F8
:1000B000B307D9F7FE0104C01D92A217B307E1F7F9
:1000C000ED37F40731F70E9476030C940304F8949B
:0200D000FFCF60
:1000D200CF93DF93CDB7DEB72597CDBFDEBF898340
:1000E2006A834B835C832D8360E089810E941A01BD
:1000F200982F81E089278823B1F080EA98E020EAEE
:1001020038E0F90124812360FC012483000080EAA5
:1001120098E0FC018581882F90E0837099270197F0
:10012200B1F780E080C0CE01029661E00E94E50155
:10013200982F81E089278823B1F080EA98E020EAAD
:1001420038E0F90124812360FC012483000080EA65
:1001520098E0FC018581882F90E0837099270197B0
:10016200B1F780E060C080EA98E020EA38E0F90167
:1001720027812160FC01278380EA98E020EA38E0A9
:10018200F90124812160FC012483000080EA98E0C7
:10019200FC018581882F90E080729927892BF1F4E8
:1001A20080EA98E0FC018581882F90E0847099278D
:1001B200892BA1F480EA98E0FC018581882F90E0E8
:1001C20088709927892B51F480EA98E0FC01858197
:1001D200882F90E0837099270397C1F60E9423032A
:1001E200882339F080EA98E023E0FC01248380E050
:1001F2001AC08B819C816D810E94820180EA98E005
:1002020020EA38E0F90124812360FC012483000004
:1002120080EA98E0FC018581882F90E0837099271D
:100222000197B1F781E02596CDBFDEBFDF91CF9177
:0202320008952D
:10023400CF93DF9300D0CDB7DEB789836A8380EA9A
:1002440098E0FC018581882F90E0837099270397BB
:1002540011F480E050C080EA98E02981222F30E038
:10026400220F331F322F2A81232BFC012783000006
:1002740080EA98E0FC018581882F90E080729927BC
:10028400892BF1F480EA98E0FC018581882F90E0C5
:1002940084709927892BA1F480EA98E0FC01858178
:1002A400882F90E088709927892B51F480EA98E090
:1002B400FC018581882F90E0837099270397C1F60C
:1002C4000E9423038823B1F080EA98E020EA38E012
:1002D400F90124812360FC012483000080EA98E072
:1002E400FC018581882F90E0837099270197B1F7ED
:1002F40080E001C081E00F900F90DF91CF910895CD
:10030400CF93DF9300D000D0CDB7DEB78A839B8331
:100314006C83198280EA98E020E2FC01258342C0C4
:10032400000080EA98E0FC018581882F90E08072CB
:100334009927892BF1F480EA98E0FC018581882FC4
:1003440090E084709927892BA1F480EA98E0FC015D
:100354008581882F90E088709927892B51F480EA51
:1003640098E0FC018581882F90E08370992703979A
:10037400C1F68981882F90E02A813B81820F931FE7
:1003840020EA38E0F9012085FC01208389818F5F10
:10039400898399818C81981729F080EA98E022E07A
:1003A400FC01248399818C81981708F4B9CF80EAE1
:1003B40098E027E0FC01248300002496CDBFDEBF33
:0603C400DF91CF910895C6
:1003CA00CF93DF9300D000D0CDB7DEB78A839B836B
:1003DA006C83198245C080EA98E02981222F30E097
:1003EA004A815B81240F351FF9012081FC01208796
:1003FA00000080EA98E0FC018581882F90E08072F5
:10040A009927892BF1F480EA98E0FC018581882FED
:10041A0090E084709927892BA1F480EA98E0FC0186
:10042A008581882F90E088709927892B51F480EA7A
:10043A0098E0FC018581882F90E0837099270397C3
:10044A00C1F680EA98E0FC018581882F90E08071EE
:10045A009927892B11F080E009C089818F5F8983F0
:10046A0099818C81981708F4B6CF81E02496CDBF84
:08047A00DEBFDF91CF91089570
:10048200CF93DF93CDB7DEB72597CDBFDEBF8A838B
:100492006B837C834D8360E08A810E941A01982FCE
:1004A20081E089278823B1F080EA98E020EA38E0E9
:1004B200F90124812360FC012483000080EA98E092
:1004C200FC018581882F90E0837099270197B1F70D
:1004D20080E01BC08B819C816D810E94E501898334
:1004E20080EA98E020EA38E0F90124812360FC01E7
:1004F2002483000080EA98E0FC018581882F90E047
:10050200837099270197B1F789812596CDBFDEBF08
:06051200DF91CF91089576
:10051800CF93DF93CDB7DEB7109200381092013831
:1005280080E491E020E8FC01208380E491E021E070
:10053800FC01258380E491E021E0FC01278380E42D
:1005480091E028E237E2FC012287338780E491E0DA
:1005580021E0FC01258B80E491E021E0FC01228B65
:1005680080E491E029E3FC01208B80E491E020E421
:1005780031E0F90120812160FC0120830000DF9136
:04058800CF91089572
:10058C001F920F920FB60F9211242F933F934F93FC
:10059C005F936F937F938F939F93AF93BF93EF93DF
:1005AC00FF93CF93DF93CDB7DEB780E491E021E0EA
:1005BC00FC01238B8091003890910138892B31F00C
:1005CC008091003890910138FC0109950000DF9171
:1005DC00CF91FF91EF91BF91AF919F918F917F91AF
:1005EC006F915F914F913F912F910F900FBE0F9094
:0405FC001F9018959F
:10060000CF93DF93CDB7DEB70E94C00380EA98E0B6
:1006100024E0FC01208380EA98E021E0FC012283B1
:1006200080EA98E02DEFFC01258380EA98E028E03D
:10063000FC01268380EA98E021E0FC01238300008E
:06064000DF91CF91089547
:10064600CF93DF93CDB7DEB780EA98E0FC018581D2
:10065600882F90E08C719927892B51F480EA98E0D5
:10066600FC018581882F90E083709927039711F408
:0C06760081E001C080E0DF91CF91089589
:10068200CF93DF9300D00F92CDB7DEB78A836B830F
:100692008A810E94D703898399818B8189278983E3
:1006A20069818A810E948F0300002396CDBFDEBF3D
:0606B200DF91CF910895D5
:1006B800CF93DF9300D0CDB7DEB78A8383E00E9463
:1006C800D70389838A81982F909589818923898383
:1006D800698183E00E948F0300000F900F90DF91E3
:0406E800CF91089511
:1006EC00CF93DF93CDB7DEB70E940E040E94EA03CE
:1006FC000E948C020E94F70378948FEF0E945C0397
:10070C008AEA0E94A80388956FEF84E00E94410357
:02071C00FACF12
:10071E00CF93DF9300D0CDB7DEB789836A8389810B
:10072E00809302388A818093033842E062E078E356
:10073E0080E60E94410200000F900F90DF91CF9152
:02074E0008950C
:10075000CF93DF9300D0CDB7DEB78A8384E00E94C9
:10076000D703898399818A81892B8983698184E070
:100770000E948F0300000F900F90DF91CF9108959A
:10078000CF93DF93CDB7DEB780E294E023E0FC01A6
:10079000218380E294E028E0FC01218B80E294E058
:0E07A00028E0FC01208B0000DF91CF9108952E
:1007AE00CF93DF930F92CDB7DEB7898321E042E07E
:1007BE0058E3698180E60E946900809102380F90AB
:0607CE00DF91CF910895B8
:1007D400CF93DF93CDB7DEB780E590E023E0FC0153
:0A07E40020830000DF91CF910895FB
:1007EE00CF93DF93CDB7DEB70E9400030E94C00304
:0807FE000000DF91CF91089586
:10080600EC010E941B040E941A04CE010E941C04E3
:06081600CE010E9418044F
:10081C00CF93DF93CDB7DEB70000DF91CF91089572
:04082C000C94000028
:040830000E946700BB
:02083400089525
:02083600089523
:02083800089521
:02000004008278
:0900000000007D0000F6FF000085
:02000004008377
:01000000C53A
:00000001FF
